:1000000012C021C020C01FC01EC01DC01CC01BC00C
:100010001AC019C018C017C016C015C014C013C02C
:1000200012C011C010C011241FBECFE5D4E0DEBF46
:10003000CDBF20E0A0E6B0E001C01D92AC36B20713
:10004000E1F7E4D0A1C1DCCF8FB9779BFECF089553
:10005000CF93DF93C4E6D0E08B81F6DF8A81F4DFB3
:100060008981F2DF8881F0DFC29880E58A95F1F717
:10007000C29ADF91CF910895282F7EEF780F7230CA
:1000800008F580916700482F50E0542F4427809155
:100090006600840F952F911D2D7FE9F425E030E057
:1000A0006130E1F4A9014095509584179507E0F47B
:1000B000820F931F7230F0F4909367008093660074
:1000C000C7CF089580916500482F50E0542F4427F2
:1000D00080916400DECF2AE332E0E2CF28173907AF
:1000E00030F4821B930BE6CF8FEF9FEFE3CF90E0CE
:1000F00080E0E0CF9093650080936400E1CF6130B1
:1001000031F099EF960F923010F06E3019F461E0F3
:10011000B3CF0895623031F0643021F06B3011F0CC
:100120006D30B9F762E0F4CF823091F070F4811154
:1001300047C06623D1F1609167008AE090E013D157
:10014000609166008BE090E00EC08330D1F008959E
:10015000662359F0609165008EE090E004D16091D3
:1001600064008FE090E0FFC008958EE090E0F3D04F
:10017000809365008FE090E0EED08093640068CFBC
:100180000895662351F06091650080E190E0EBD026
:100190006091640081E190E0E6CF80E190E0DBD007
:1001A0008093650081E190E0E7CF8AE090E0D3D0D2
:1001B000809367008BE090E0CED080936600DFCF25
:1001C000662351F0609167008CE090E0CCD06091A4
:1001D00066008DE090E0C7CF8CE090E0BCD08093CB
:1001E00067008DE090E0E8CFCF93DF93C82FD0E099
:1001F000C859DF4F988161E0993C18F4943010F0B1
:1002000060E092DF1882DF91CF9108958CE387BB85
:1002100014BA11BA87E088BB8FE385BB84EF82BB39
:1002200080E58DB91FB883B3869583708093630092
:1002300083B3829583708093620080B382958695A4
:1002400083708093610086B3837080936000109206
:1002500068001092690010926A0010926B008AE0A8
:1002600080936400109265001092660010926700FF
:10027000EFDEEEDEEDDEECDEEBDEC4EFD1E083B3ED
:10028000869583706091630094E0699FB0011124AA
:10029000682B8093630080E032DF83B382958370A4
:1002A0006091620094E0699FB0011124682B8093F3
:1002B000620081E024DF80B382958695837060912F
:1002C000610094E0699FB0011124682B8093610064
:1002D00082E015DF86B383706091600094E0699FCF
:1002E000B0011124682B8093600083E008DF219720
:1002F00031F69B9B0FC082E077DF829B13C083E0C7
:1003000073DF879B17C080E06FDF989B1BC081E085
:100310006BDFB3CF80916A008F3F79F38F5F80935B
:100320006A00EBCF80916B008F3F59F38F5F809312
:100330006B00E7CF809168008F3F39F38F5F809328
:100340006800E3CF809169008F3F09F496CF8F5FFB
:100350008093690092CFE199FECF9FBB8EBBE09A5C
:1003600099278DB30895262FE199FECF9FBB8EBBB1
:10037000E09A01970DB2021631F02DBB0FB6F8943A
:0C038000E29AE19A0FBE0895F894FFCFB6
:00000001FF
